:020000040800F2
:100000009044002081310108B50100088B310108BE
:10001000B7010008BB010008BF0100080000000094
:10002000000000000000000000000000C301000804
:10003000C50100080000000097310108C701000851
:100040009B3101089B3101089B3101089B3101085C
:100050009B3101089B3101089B3101089B3101084C
:100060009B3101089B3101089B3101089B3101083C
:100070009B3101089B3101089B3101089B3101082C
:100080009B3101089B3101089B3101089B3101081C
:100090009B3101089B3101089B3101089B3101080C
:1000A0009B3101089B3101089B3101089B310108FC
:1000B0009B310108D9010008E10100089B310108CA
:1000C0009B3101089B3101089B3101089B310108DC
:1000D0009B31010837AA0008E9010008E3AD0008D8
:1000E0009B3101089B3101089B3101089B310108BC
:1000F0009B3101089B3101089B3101089B310108AC
:100100009B3101089B3101089B3101089B3101089B
:100110009B310108F10100089B3101089B31010866
:100120009B3101089B3101089B3101089B3101087B
:100130009B3101089B3101089B3101089B3101086B
:100140009B3101089B3101089B310108F9BD000872
:100150009B3101089B3101089B3101089B3101084B
:100160009B3101089B3101089B3101089B3101083B
:100170009B3101089B3101089B3101089B3101082B
:100180009B3101089B310108DFF80CD017F01EF8F5
:1001900000480047A10100089044002000BFFEE78E
:1001A00000F004FB0249087001E000F0ABFAFCE744
:1001B00000000020704700BFFEE700BFFEE700BF61
:1001C000FEE77047704710B50B480068401C0A49AD
:1001D000086007F01BFE10BD10B508F00CF810BD4C
:1001E00010B508F00FF910BD10B50AF0C5FE10BD2E
:1001F00010B50AF083FF10BDD805002010B5FE48E9
:10020000C089401CFC49C88108468088401C00B257
:1002100088800846C088401C00B2C8800846008913
:10022000401C00B2088108464089401C00B2488149
:1002300008468089401C00B2888108460078012861
:1002400004D108464078401C487002E00120EA4989
:10025000087009F0F0FC10BD10B5012007F015FE84
:1002600003F05AFE10BD10B52DED028B002007F0F3
:100270000CFE00EE100AB8EE400ADFEDE00A80EE58
:10028000201AB0EE418A07F091FD00EE100AB8EE98
:10029000400ADFEDDA0A80EE201AD94880ED001A14
:1002A00008F042FDB0EE480A08F0C7FFD548D0ED8F
:1002B000063AB0EE633AD0ED053AF0EE632AD0ED9F
:1002C000043AB0EE632AD0ED0C3AF0EE631AD0EDAA
:1002D0000B3AB0EE631AD0ED0A3AF0EE630AF6EE8E
:1002E000003A68EE233AB0EE630AC74AC749C848E5
:1002F00001F06EFEB0EE480A01F0B8FAC548B0EE63
:10030000480A05F0E8F907F051FD00EE100AB8EED2
:10031000400ADFEDBA0A80EE201AB94880ED011AD2
:10032000BDEC028B10BD10B52DED028B022007F045
:10033000ACFD00EE100AB8EE400ADFEDB00A80EE28
:10034000201AB0EE418A07F031FD00EE100AB8EE37
:10035000400ADFEDAA0A80EE201AA94880ED021AB1
:10036000B0EE480A00F06AFD07F020FD00EE100A2A
:10037000B8EE400ADFEDA10A80EE201AA04880ED19
:10038000031ABDEC028B10BD10B509F0D5FB10BDF2
:1003900010B500F018FDA048007888B901209F49E9
:1003A00008709F480068322807DB9D48006896283F
:1003B00003DC9CA00AF057FD02E09BA00AF053FD6D
:1003C00095480078012824D194480078012820D14C
:1003D00095A00AF048FD94A00AF045FD92A00AF00D
:1003E00042FD91A00AF03FFD8FA00AF03CFD8EA0D7
:1003F0000AF039FD8CA00AF036FD8BA00AF033FD1F
:1004000089A00AF030FD88A00AF02DFD0020834964
:10041000087010BD10B58548007802287ED1844848
:10042000006840F2DC51884202D90020804908600F
:1004300080480078A0B97A480068642810DB7E48BC
:10044000007868B97A480068401C79490860084615
:100450000068642804D100200860052076490870EF
:1004600074480078012877D16D4800685F2815DB53
:100470007148007890B96E480068401C6C4908606B
:1004800001206E4908706A480068782864D100200D
:10049000674908600120684908705DE06648007897
:1004A000012859DB64480078052855D06048006869
:1004B000401C5F49086060480078012810D1084658
:1004C000006802280CD19FED5E0A5E4880ED000AAC
:1004D00000205A49087056490860022056490870A1
:1004E00055480078022811D15148006846280DD19E
:1004F0009FED550A534880ED000A00204C490860E2
:1005000003204D49087001204C4908704A48007882
:10051000032813D146480068782800E0DAE00DD1BE
:100520000020434908600420434908709FED470AB2
:10053000444880ED000A0020404908703E48007899
:10054000042809D13A4800683C2805D105203A49D9
:10055000087000203649086036480078022814D117
:100560002F4800685F2811DB3348007870B93048A5
:100570000068401C2E490860084600687828EED1C3
:100580000020086001202C490870AEE02A4800785D
:1005900001287DDB28480078052879D024480068A8
:1005A000401C2349086024480078012810D10846DF
:1005B000006802280CD19FED220A224880ED000A33
:1005C00000201E4908701A49086002201A49087064
:1005D0001948007802283ED11548006846283AD1CB
:1005E0009FED190A174880ED000A002010490860A5
:1005F0000320114908702BE0B4070020002474493F
:10060000C407002004370020680000206400002098
:1006100060000020F4360020FC04002020000020B0
:100620007C3C00207361230073622300800500205E
:1006300024000020060000202100002023000020CC
:10064000CDCCCCBF2C00002000000000CDCC4C3F16
:1006500001204D4908704D480078042807D14C48C6
:100660000068462803D8AFF244000AF0FCFB474874
:10067000007804280BD146480068462807D3444830
:1006800000685A2803D8AFF260000AF0ECFB00E0E3
:100690001FE03E48007804280BD13D4800686428DC
:1006A00007D11FED160A3B4880ED000A00203649AD
:1006B000087036480078042817D135480068AA2801
:1006C00013D11FED1F0A334880ED000A05202F4982
:1006D00008700AE000202D4908701FED250A2D48FA
:1006E00080ED000A00202A49086010BD10B52A4993
:1006F0002A4806F009FE09F012FC0CF0F3F8FFF7A7
:1007000089FE10BD10B52648007801283BD1254848
:10071000008800B224490880FFF79EFD2048B0F908
:100720000400022804DB00201D498880FFF79BFDA0
:100730001B48B0F90600052804DB00201849C880D2
:10074000FFF7F1FD1648B0F908000A2804DB002085
:1007500013490881FFF718FE1148B0F90A00142860
:1007600004DB00200E494881FFF712FE0C48B0F967
:100770000C00322804DB002009498881FFF7B6FF0E
:1007800000200749087010BD230000202100002030
:10079000240000202C0000209C3300208C2C002002
:1007A000B4070020E80500200400002010B54FF435
:1007B00080600CF015F907F0C7FA08F0F6F807F0BA
:1007C000BDFB4FF4C87007F01BFF05F031FA09F0CC
:1007D0002EFF4FF4C87007F00DFB142008F086FBC5
:1007E00009F0B0F917480AF054FB4FF4E1300AF071
:1007F000BDF84FF416500AF066FA00F04FFA642084
:1008000007F0F8FA0CF068F808F06AFF80F00100D1
:100810000D4908700D48007810B909F04EFE0AE045
:100820000948007810B909F05FFE04E00848007834
:1008300008B909F07DFE042009F0DCF907F060FB3F
:10084000012010BD20A107005C0600201406002036
:10085000CA06002038B50122FAA1FB4814F0A2FE16
:100860000446C4B100221146F6A015F094FE0446D9
:1008700014B14FF0FF3038BD0022F2A1F24814F05D
:1008800091FE04463CB10022EEA1104614F08AFE0F
:100890006FF00100EFE7EDA1ED4815F03AFB0446DB
:1008A0003CB10022E7A1104614F07CFE6FF002007C
:1008B000E1E70122E7A1EA4814F09FFE04463CB1BB
:1008C0000022E0A1104614F06DFE6FF00300D2E7A5
:1008D0006B464022E349E24814F041FF0446009889
:1008E00078B3DF4815F09AF90122DFA1DC4814F053
:1008F00084FE04463CB10022D2A1104614F052FE00
:100900006FF00300B7E76B46C022D949D44814F012
:1009100026FF0446009848B1D14815F07FF900221F
:10092000C8A1104614F03EFE0120A4E7CC4815F003
:1009300075F90022C3A1104614F034FE6FF00300D5
:1009400099E7FFE7C64815F069F90022BDA11046F6
:1009500014F028FE6FF004008DE738B50022B9A12D
:10096000B94814F01FFE0446C4B100221146B5A0D8
:1009700015F011FE044614B14FF0FF3038BD0022CF
:10098000B0A1B14814F00EFE04463CB10022ADA166
:10099000104614F007FE6FF00100EFE7ABA1AC4882
:1009A00015F0B7FA04463CB10022A6A1104614F097
:1009B000F9FD6FF00200E1E70A22A6A1A84814F0B1
:1009C0001CFE04463CB100229EA1104614F0EAFD34
:1009D0006FF00300D2E76B464022A249A04814F012
:1009E000B7FF044674BB9E4815F018F90A229EA171
:1009F0009B4814F002FE04463CB1002291A110462F
:100A000014F0D0FD6FF00300B8E76B46C0229849A0
:100A1000934814F09DFF04464CB9914815F0FEF838
:100A2000002288A1104614F0BDFD0120A6E78C48E5
:100A300015F0F4F8002283A1104614F0B3FD6FF016
:100A400003009BE7864815F0E9F800227DA11046D7
:100A500014F0A8FD6FF0040090E710B58548814BB5
:100A6000D3E900219B68C0E90E1342637D4BD3E9B3
:100A700003215B69C0E9111302647F48794B183385
:100A80000ECB08300EC07B4A764B24330BCB58324A
:100A90000BC2744890ED0D0A764880ED190A714832
:100AA00090ED0E0A734880ED1A0A7448704C1ECC03
:100AB00054301EC064386E49D1E905340A69C969E9
:100AC000C0E91A3442660167694BD3E909141A6A0E
:100AD000DB6AC0E91F43C0E91D216948644BD3E9C3
:100AE0000C41D3E90E23C0E91541C0E91723604941
:100AF000D1E911430A6CC96CC0E91A434266016727
:100B00005B49D1E91434D1E91621C0E91D34C0E9AB
:100B10001F2110BD10B500F07FF905F046FC10BD97
:100B200010B50022012147A015F035FD9FED550AB3
:100B30004F4880ED040A9FED530A80ED000AB7EE9E
:100B4000000A80ED080A9FED500A80ED060A9FED2D
:100B50004E0A80ED020A9FED4C0A80ED0A0A9FEDD5
:100B60004B0A80ED050A9FED490A80ED010AB0EEBF
:100B7000000A80ED090AB7EE000A80ED070AB7EE19
:100B8000000A80ED030AB7EE000A80ED0B0AB6EE0C
:100B9000000A80ED100AB6EE000A80ED0C0A9FED07
:100BA0003C0A80ED140A9FED3B0A80ED120A9FED8E
:100BB000390A80ED0E0A9FED370A80ED160A9FED87
:100BC000360A80ED110A9FED340A80ED0D0A9FED83
:100BD0002E0A80ED150AB7EE000A80ED200AB7EE66
:100BE000000A80ED220AB7EE000A80ED210AB7EE76
:100BF000000A80ED240AB7EE000A80ED260AB7EE5F
:100C0000000A80ED250AB7EE000A80ED180AB7EE5B
:100C1000000A80ED1A0AB7EE000A80ED190AB7EE55
:100C2000000A80ED1C0AB7EE000A80ED1E0AB7EE3E
:100C3000000A80ED1D0AFFF790FEFFF70EFFFFF799
:100C400069FF10BD303A0000D80800202F000000D6
:100C50003029002073656E736F722E62696E00001A
:100C600008190020D80700207069642E62696E00A0
:100C70001808002004370020300600204C290020EE
:100C8000102A00209A99193FCDCCCC3DCDCC0C40F8
:100C9000CDCC4C3FCDCC4C3D9A99993E10B5FFF749
:100CA000D9FD0446002C04DAFFF73AFF0120514930
:100CB0000870FFF7D2FEFFF72DFF10BD10B50446F8
:100CC0004D4894E80E0034300EC04C4894E80E00B5
:100CD0000EC0494890ED190A484880ED0D0AFFF70B
:100CE0003CFE10BD10B50446434894E80E00403069
:100CF0000EC0424894E80E000C300EC03E4890ED05
:100D00001A0A3E4880ED0E0AFFF727FE10BD10B507
:100D100004463B4894E80E0008300EC0374894E87B
:100D20000E0018300EC0FFF718FE10BD10B50446B7
:100D3000314894E80E0058300EC0304894E80E0058
:100D400024300EC0FFF709FE10BD10B52D482E4906
:100D5000D1E916344A6D096E80E81C00C160014675
:100D60002948D0E91A34426E006FC1E905340A619E
:100D7000C8612548D0E91E34426FD0F88000C1E92F
:100D800009340A62C8620A46204CD4E91530D4E915
:100D90001714C2E90E14C2E90C3010461B49D1E900
:100DA0001942D1E91B31C0E91042C0E9123117499B
:100DB000D1E91D42D1E91F31C0E91442C0E9163121
:100DC000FFF7CBFD10BD10B51148008820B11048C9
:100DD0000088401C0E4908800D4800883C2807DD2B
:100DE00000200B4908800B48007808B9FFF7ADFFD9
:100DF00010BD00004100002004370020D80700206B
:100E000030060020180800204C290020102A00205D
:100E1000AC040020FC040020B7EE000AFA4880ED84
:100E2000180AB7EE000A80ED1C0AB7EE000A80ED42
:100E3000200A9FEDF60A80ED300A704710B52DEDBF
:100E40000E8BB0EE408AF248D0ED000AB0EE600A98
:100E5000B3EE0E1ADFEDEF0A02F033F8DFEDEE0A23
:100E600080EE201AB3EE0E0A21EE000AEB4880ED68
:100E7000000AE748D0ED010AF1EE600AB0EE600A20
:100E8000B3EE0E1ADFEDE30A02F01BF8DFEDE20A23
:100E900080EE201AB3EE0E0A21EE000ADF4880ED44
:100EA000010ADF48007818BBD948D0ED030AB0EE3C
:100EB000600A9FEDDC1ADFEDD70A02F01DF8DFEDC6
:100EC000D60A80EE201A9FEDD80A21EE000ABDEE68
:100ED000C00A10EE100A00B200EE100AF8EEC00AC6
:100EE000CE4890ED020A00EE880A80ED020A36E054
:100EF000CA4890ED020ACD48D0ED000A30EEC00A93
:100F000010EE101A084615F0DEFF41EC1C0B18EE2F
:100F1000100A15F0D8FF41EC1E0B9FEDC50B53ECEA
:100F2000102B15F04DFF41EC1D0B53EC1C2B15F055
:100F300047FF41EC1A0BB94890ED020A10EE101A67
:100F4000084615F0C0FF41EC1B0B53EC1A2B15F0B3
:100F500090FE41EC190B15F0F9FFB0498860AF48DD
:100F6000D0ED020AB0EE600A02F014F8AB4880ED52
:100F7000020AB1480078012814D1A84890ED000A6F
:100F8000AE48D0ED000A30EE200AA44880ED000AF9
:100F900090ED010AAA48D0ED000A30EE200A9F48E1
:100FA00080ED010AA748007802280EDBA5480078EA
:100FB00005280AD0994890ED010AA348D0ED000A0F
:100FC00030EE200A954880ED010AA048D0ED000AD5
:100FD000924890ED001A70EE810A9D4890ED001A3B
:100FE00070EEC10AB0EE600A01F0D4FF994880EDBE
:100FF000000A9648D0ED010A884890ED011A70EE7B
:10100000810A954890ED001A70EEC10AB0EE600AB0
:1010100001F0C0FF8F4880ED010A8C48D0ED020A34
:101020007E4890ED021A70EE810A804890ED001A19
:1010300070EEC10AB0EE600A01F0ACFF854880EDA9
:10104000020A90ED000AB5EEC00AF1EE10FA02DDD8
:1010500090ED000A04E07F4890ED000AB1EE400AEE
:10106000F3EE0E0A80EE201A7A4880ED2D1A90EDEC
:10107000010AB5EEC00AF1EE10FA02DD90ED010AA8
:1010800004E0744890ED010AB1EE400AF3EE0E0A56
:1010900080EE201A6F4880ED2E1A90ED020AB5EE10
:1010A000C00AF1EE10FA02DD90ED020A04E0694890
:1010B00090ED020AB1EE400AF3EE0E0A80EE201A1D
:1010C000644880ED2F1ADFED650A80EE880AD0EDC6
:1010D000000A90ED031A70EEC10A90ED161AF2EEB6
:1010E000041A21EE211A60EE810A20EE200A80ED1A
:1010F0000C0ADFED5A0A80EE880AD0ED010A90ED65
:10110000041A70EEC10A90ED1A1AF2EE041A21EEDA
:10111000211A60EE810A20EE200A80ED0D0ADFED33
:101120004F0A80EE880AD0ED020A90ED051A70EEA3
:10113000C10A90ED1E1AF2EE041A21EE211A60EE99
:10114000810A20EE200A80ED0E0A90ED170AD0EDFC
:10115000000A60EE200A90ED060A00EE880A80ED93
:10116000060A90ED1B0AD0ED010A60EE200A90ED10
:10117000070A00EE880A80ED070A90ED1F0AD0EDFD
:10118000020A60EE200A90ED080A00EE880A80ED5F
:10119000080A334890ED000AF6EE000A20EE200A15
:1011A000F3EE0E0A20EE200A2A4880ED090A2C48A8
:1011B00090ED000AF6EE000A20EE200AF3EE0E0A89
:1011C00020EE200A234880ED0A0A254890ED000A07
:1011D000F6EE000A20EE200AF3EE0E0A20EE200AB8
:1011E0001C4880ED0B0A90ED060AD0ED090AF1EEDD
:1011F000600AB4EEE00AF1EE10FA33D290ED090A7B
:10120000B1EE400A3EE000004C290020CDCC4C3E1F
:101210008C2C0020000000000000FA43D42A00209B
:101220004800002000002042000016436800002013
:101230001F85EB51B81E0940230000200800002044
:101240000C000020210000202C000020E02A0020BB
:1012500060000020102A0020640000200AD7A33B71
:101260004C000020FE4890ED060AD0ED090AB4EECD
:10127000E00AF1EE10FA02DD90ED090A02E0F8480A
:1012800090ED060AF64880ED060A90ED070AD0EDCB
:101290000A0AF1EE600AB4EEE00AF1EE10FA04D2A6
:1012A00090ED0A0AB1EE400A0FE0ED4890ED070A12
:1012B000D0ED0A0AB4EEE00AF1EE10FA02DD90ED8C
:1012C0000A0A02E0E64890ED070AE54880ED070AC1
:1012D00090ED080AD0ED0B0AF1EE600AB4EEE00AD8
:1012E000F1EE10FA04D290ED0B0AB1EE400A0FE0D5
:1012F000DB4890ED080AD0ED0B0AB4EEE00AF1EEFF
:1013000010FA02DD90ED0B0A02E0D54890ED080AD4
:10131000D34880ED080A90ED000A80ED030A90EDB5
:10132000010A80ED040A90ED020A80ED050A90EDB5
:10133000000ADFEDCC0AB4EEE00AF1EE10FA02D2B8
:101340009FEDC80A0FE0C64890ED000ADFEDC60A1F
:10135000B4EEE00AF1EE10FA02DD9FEDC30A02E0FE
:10136000BF4890ED000ABE4880ED000A90ED010AEA
:10137000DFEDBC0AB4EEE00AF1EE10FA02D29FED06
:10138000B90A0FE0B64890ED010ADFEDB70AB4EEF6
:10139000E00AF1EE10FA02DD9FEDB30A02E0B04878
:1013A00090ED010AAE4880ED010A90ED020ADFEDF2
:1013B000AD0AB4EEE00AF1EE10FA02D29FEDA90AEE
:1013C0000FE0A74890ED020ADFEDA70AB4EEE00AAD
:1013D000F1EE10FA02DD9FEDA40A02E0A04890EDC4
:1013E000020A9F4880ED020A90ED000AD0ED0C0A37
:1013F00030EE200AD0ED060A30EE200AD0ED150AB4
:1014000020EE200A80ED120A90ED010AD0ED0D0ABF
:1014100030EE200AD0ED070A30EE200AD0ED190A8E
:1014200020EE200A80ED130A90ED020AD0ED0E0A9C
:1014300030EE200AD0ED080A30EE200AD0ED1D0A69
:1014400020EE200A80ED140ABDEC0E8B10BD10B505
:101450002DED048B84B0F0EE408AB0EE609AB0EED1
:10146000418A9FED820AB4EEC08AF1EE10FA02D2F0
:101470009FED7E0A0BE09FED7E0AB4EEC08AF1EE8E
:1014800010FA02DD9FED7A0A01E0B0EE480AB0EEF4
:10149000408AB1EE680A30EE090A30EE080A8DED96
:1014A000000A38EE890A30EE480A8DED010A38EE5E
:1014B000C90A30EE080A8DED020AB1EE680A30EE74
:1014C000490A30EE480A8DED030A00243BE06846E5
:1014D00000EB840090ED000ADFED660AB4EEE00A4E
:1014E000F1EE10FA02D29FED630A13E0684600EBBA
:1014F000840090ED000ADFED600AB4EEE00AF1EE40
:1015000010FA02DD9FED5C0A04E0684600EB8400FF
:1015100090ED000A684600EB840080ED000A684602
:1015200000EB8400D0ED000A544890ED000A5448C6
:1015300090ED001A01EE200A524800EB840080ED85
:10154000000A601CC4B2042CC1DB4F48007800289C
:1015500061D04E48007870BB002429E0494800EB78
:10156000840090ED000ADFED4A0AB4EEE00AF1EEE5
:1015700010FA02D29FED460A13E0424800EB8400C5
:1015800090ED000ADFED3C0AB4EEE00AF1EE10FA4D
:1015900002DD9FED390A04E03A4800EB840090ED4B
:1015A000000A384800EB840080ED000A601CC4B2D9
:1015B000042CD3DB3CE0FFE7002429E0314800EBBA
:1015C000840090ED000ADFED330AB4EEE00AF1EE9C
:1015D00010FA02D29FED2F0A13E02A4800EB840094
:1015E00090ED000ADFED240AB4EEE00AF1EE10FA05
:1015F00002DD9FED210A04E0224800EB840090ED1B
:10160000000A204800EB840080ED000A601CC4B290
:10161000042CD3DB0CE0002408E09FED1F0A1948DE
:1016200000EB840080ED000A601CC4B2042CF4DBE3
:1016300000240EE0134800EB840090ED000ABDEE9C
:10164000C00A10EE100A00B2144921F81400601C00
:10165000C4B2042CEEDB4FF47A7200210F481FE075
:10166000102A00200000B4C20000B4420000C8C329
:101670000000C84300007AC400007A4444000020FF
:101680004C000020202B0020FC04002048000020FB
:10169000000048430000C842000000005000002045
:1016A00007F01DF904B0BDEC048B10BD10B52DED95
:1016B000028BB0EE408AFA48007850B9F94890EDB4
:1016C000020ADFEDF90A30EE200AF84880ED000A40
:1016D00004E09FEDF50AF54880ED000AF44890ED2E
:1016E000000A1FED1D1AC0EE010AF24890ED000A33
:1016F00070EEC00A9FEDF00A28EE001A90ED000A85
:1017000001EE200A80ED000A90ED000AB5EEC00A55
:10171000F1EE10FA02D21FED200A0FE0E54890ED3D
:10172000000AF7EE000AB4EEE00AF1EE10FA02DD6C
:10173000B7EE000A02E0DF4890ED000ADF4880EDD6
:10174000000ADA4890ED000A5FED2E0AB4EEE00AD6
:10175000F1EE10FA03D20120D949087002E000200E
:10176000D7490870D748007878B3D7480078E8B9E7
:10177000CE4890ED000AB5EEC00AF1EE10FA02D2A2
:101780001FED3B0A0FE0C94890ED000ADFEDC60AE5
:10179000B4EEE00AF1EE10FA02DD9FEDC30A02E0BA
:1017A000C24890ED000AC14880ED000AB7EE001A69
:1017B000C6480078BD49D1ED000AB0EE480A04F0F1
:1017C0002CFFBB4880ED000A2FE0FFE7BE48007801
:1017D000E8B9B64890ED000AB5EEC00AF1EE10FA8D
:1017E00002D21FED530A0FE0B04890ED000ADFED82
:1017F000B80AB4EEE00AF1EE10FA02DD9FEDB40A89
:1018000002E0AA4890ED000AA84880ED000A1FED0A
:101810005E1AAE480078A549D1ED000AB0EE480A3C
:1018200004F0FBFEA24880ED000AA14890ED000AFA
:10183000B5EEC00AF1EE10FA02D21FED690A0FE010
:101840009B4890ED000ADFEDA30AB4EEE00AF1EE4A
:1018500010FA02DD9FED9F0A02E0954890ED000A24
:10186000934880ED000ABDEC028B10BD00B52DED54
:10187000028B83B0B0EE408A974890ED120AF3EEE7
:101880000E0A80EE201A9FED950A21EE000A8DEDDA
:10189000000AD0ED130AB3EE0E1A80EE810ADFEDD6
:1018A0008F0A20EE200A8DED010A90ED140AF3EE66
:1018B0000E0A80EE201A9FED8A0A21EE000A8DEDB5
:1018C000020A9DED000A874880ED000A9DED010A9D
:1018D00080ED010A9DED020A80ED020A90ED000AFA
:1018E000DFED810AB4EEE00AF1EE10FA02D29FEDCC
:1018F0007E0A0FE07B4890ED000ADFED780AB4EE37
:10190000E00AF1EE10FA02DD9FED740A02E075487C
:1019100090ED000A734880ED000A90ED010ADFEDBA
:10192000720AB4EEE00AF1EE10FA02D29FED6E0AEE
:101930000FE06C4890ED010ADFED680AB4EEE00AB2
:10194000F1EE10FA02DD9FED650A02E0654890EDC8
:10195000010A644880ED010A90ED020ADFED630A96
:10196000B4EEE00AF1EE10FA02D29FED600A0FE049
:101970005C4890ED020ADFED5A0AB4EEE00AF1EE9F
:1019800010FA02DD9FED560A02E0564890ED020A79
:10199000544880ED020ADFED560A80EE880A554869
:1019A000D0ED0A0A544890ED001A70EEC10A20EEFC
:1019B000200A524880ED0F0ADFED4D0A80EE880ABA
:1019C0004C48D0ED0B0AF1EE600A4B4890ED011A3D
:1019D00070EEC10A20EE200A484880ED100ADFEDC3
:1019E000440A80EE880A4348D0ED0C0AF1EE600A02
:1019F000414890ED021A70EEC10A20EE200A3F48DD
:101A000080ED110A374890ED000A3A48D0ED0A0AF5
:101A100030EE600AF7EE000A20EE200A374880ED2B
:101A2000000A304890ED010A3248D0ED0B0A30EE42
:101A3000200AF7EE000A20EE200A304880ED010A65
:101A4000284890ED020A2B48D0ED0C0A30EE200A0F
:101A5000F7EE000A20EE200A284880ED020A90EDF9
:101A6000000AB5EEC00AF1EE10FA02DD90ED000AB0
:101A700004E0224890ED000AB1EE400ADFED170ABB
:101A800080EE201A1D4880ED2D1A90ED010AB5EE6A
:101A9000C00AF1EE10FA33DD90ED010A35E00000E6
:101AA000800500208C2C00200000FA435800002004
:101AB000440000205C0000203433FB414C00002037
:101AC000480000209C330020C5040020FC040020B6
:101AD0000000AF4300004844102A00200000964355
:101AE00000001643F82A0020000096C3000016C329
:101AF0006F12033B04370020042B00204C290020E8
:101B0000FE4890ED010AB1EE400A5FED0C0A80EE4E
:101B1000201AFA4880ED2E1A90ED020AB5EEC00A9E
:101B2000F1EE10FA02DD90ED020A04E0F34890EDC8
:101B3000020AB1EE400A5FED160A80EE201AEF4865
:101B400080ED2F1A5FED160A80EE880AD0ED160A96
:101B500090ED0F1AFAEE041A21EE211A60EE810AB6
:101B600020EE200A80ED0C0A5FED1F0A80EE880A45
:101B7000D0ED1A0A90ED101AFAEE041A21EE211A8D
:101B800060EE810A20EE200A80ED0D0A5FED280A42
:101B900080EE880AD0ED1E0A90ED111AFAEE041AB2
:101BA00021EE211A60EE810A20EE200A80ED0E0A55
:101BB00090ED000AD0ED0F0A30EE600AD0ED170A62
:101BC00060EE200A90ED060A00EE880A80ED060A13
:101BD00090ED010AD0ED100A30EE600AD0ED1B0A3C
:101BE00060EE200A90ED070A00EE880A80ED070AF1
:101BF00090ED020AD0ED110A30EE600AD0ED1F0A16
:101C000060EE200A90ED080A00EE880A80ED080ACE
:101C1000BB4890ED000AF6EE000A20EE200A5FEDC8
:101C2000510A20EE200AB54880ED090AB44890ED2B
:101C3000000AF6EE000A20EE200A5FED580A20EEB8
:101C4000200AAE4880ED0A0AAD4890ED000AF6EE93
:101C5000000A20EE200A5FED5F0A20EE200AA74866
:101C600080ED0B0A90ED060AD0ED090AF1EE600A4C
:101C7000B4EEE00AF1EE10FA04D290ED090AB1EEEA
:101C8000400A0FE09D4890ED060AD0ED090AB4EE37
:101C9000E00AF1EE10FA02DD90ED090A02E0974841
:101CA00090ED060A954880ED060A90ED070AD0ED02
:101CB0000A0AF1EE600AB4EEE00AF1EE10FA04D27C
:101CC00090ED0A0AB1EE400A0FE08C4890ED070A49
:101CD000D0ED0A0AB4EEE00AF1EE10FA02DD90ED62
:101CE0000A0A02E0854890ED070A844880ED070A59
:101CF00090ED080AD0ED0B0AF1EE600AB4EEE00AAE
:101D0000F1EE10FA04D290ED0B0AB1EE400A0FE0AA
:101D10007A4890ED080AD0ED0B0AB4EEE00AF1EE35
:101D200010FA02DD90ED0B0A02E0744890ED080A0B
:101D3000724880ED080A90ED300AF7EE000A30EEA6
:101D4000C00AD0ED150A20EE200AD0ED000A90ED71
:101D50000C1A70EE810A90ED061A70EE810A60EEA0
:101D6000200A90ED301A6748D0ED2D1A9FED660AD3
:101D70009FED662A02EE210AB5EEC00AF1EE10FAD6
:101D800002D29FED630A1BE05E48D0ED2D1A9FED55
:101D90005E0A9FED5E2A02EE210AF7EE001AB4EE0B
:101DA000E10AF1EE10FA02DDB7EE000A08E055484C
:101DB000D0ED2D1A9FED540A9FED542A02EE210A10
:101DC00021EE000A534890ED001A40EE010AB0EEF1
:101DD000000A20EE800A494880ED120A90ED300A90
:101DE000F7EE000A30EEC00AD0ED190A20EE200A04
:101DF000D0ED010A90ED0D1A70EE810A90ED071AF0
:101E000070EE810A60EE200A90ED301A3D48D0ED68
:101E10002E1A9FED3D0A9FED3D2A02EE210AB5EEF6
:101E2000C00AF1EE10FA02D29FED390A1BE03548E4
:101E3000D0ED2E1A9FED340A9FED342A02EE210ACE
:101E4000F7EE001AB4EEE10AF1EE10FA02DDB7EE99
:101E5000000A08E02B48D0ED2E1A9FED2B0A9FEDCB
:101E60002B2A02EE210A21EE000A2A4890ED011ADF
:101E700040EE010AB0EE000A20EE800A1F4880ED15
:101E8000130A90ED300AF7EE000A30EEC00AD0EDEA
:101E90001D0A20EE200AD0ED020A90ED0E1A70EE17
:101EA000810A90ED081A70EE810A60EE200A90ED2A
:101EB000301A1448D0ED2F1A9FED130A9FED132A04
:101EC00002EE210AB5EEC00AF1EE10FA02D29FED41
:101ED000100A2AE00B48D0ED2F1A9FED0B0A9FED58
:101EE0000B2A02EE210AF7EE001AB4EEE10AF1EE37
:101EF00010FA11DDB7EE000A17E000004C290020AF
:101F00004C000020102A00206666E63ECDCC0C3F37
:101F100000000000F82A00202848D0ED2F1A1FEDFD
:101F2000060A1FED062A02EE210A21EE000A2448C5
:101F300090ED021A40EE010AB1EE000A20EE800A8E
:101F4000204880ED140AB0EE480AFFF7AFFB1D48A9
:101F5000D0ED141AB0EE611AD0ED131AF0EE610A4A
:101F6000D0ED121AB0EE610AFFF771FA154890ED44
:101F7000000A80ED030A90ED010A80ED040A90ED5D
:101F8000020A80ED050A104890ED0A0A0F4880ED1C
:101F9000000A0D4890ED0B0AB1EE400A0B4880EDA7
:101FA000010A094890ED0C0AB1EE400A074880ED9D
:101FB000020A03B0BDEC028B00BD0000102A002015
:101FC000F82A00204C29002004370020042B002090
:101FD00070B52DED108BB0EE408AB0EE60EAF0EEF9
:101FE00041EAB0EE61FAF0EE429AB0EE629AF0EE9B
:101FF000438A04460D4616469FEDFE0A28EE000A67
:10200000F3EE040A20EE200AF0EE40AAFA48D0EDE2
:10201000080A60EEA00A90ED091AD0ED091A41EE07
:10202000210A90ED0A1AD0ED0A1A41EE210AB0EE0B
:10203000600A00F0B1FDF14880ED000A90ED000A61
:10204000B5EEC00AF1EE10FA38D0EB48D0ED080A30
:10205000EA4890ED001A80EE810AE948D0ED000AC6
:1020600070EE600A90ED000A0AEEA00A80ED000A08
:10207000E148D0ED090AE14890ED001A80EE810AAE
:10208000DF48D0ED010A70EE600A90ED010A0AEE19
:10209000A00A80ED010AD848D0ED0A0AD74890ED91
:1020A000001A80EE810AD648D0ED020A70EE600A6E
:1020B00090ED020A0AEEA00A80ED020AD14AD04948
:1020C000D14804F069F8CF48D0ED000A60EEA00ACC
:1020D00090ED011AD0ED011A41EE210AB0EE600A2E
:1020E00000F05AFDC94880ED000AC64890ED000A8C
:1020F000B5EEC00AF1EE10FA36D090ED010AB5EE59
:10210000C00AF1EE10FA2FD090ED020AB5EEC00A27
:10211000F1EE10FA28D0BD4890ED000AB5EEC00AE5
:10212000F1EE10FA20D0B74890ED000AB748D0ED94
:10213000000A80EE201AB0EE41BAB24890ED010AD2
:10214000B248D0ED000A80EE201AF0EE41BAF0EE6F
:102150004B0AB0EE6B0A00F064FCDFEDAD0A20EE36
:10216000200AAC4880ED000AAB4890ED010AD0EDA2
:10217000030A20EE200AD0ED000A90ED021A00EECC
:10218000C10AF0EE000A20EE200A9F4880ED000A06
:10219000A14890ED000AD0ED010A20EE200AD0ED12
:1021A000020A90ED031A00EE810AF0EE000A20EE1A
:1021B000200A954880ED010A974890ED010A20EE2B
:1021C000000AD0ED020A90ED021A00EE810AF7EE45
:1021D000000AB0EE001A41EE400A8B48C0ED020A38
:1021E0008E48007800285ED08C48007802280CD1F8
:1021F0009FED8B0A8B4880ED000A9FED890A80EDE8
:10220000010A9FED870A80ED020A864890ED000AD8
:102210007D4890ED001ADFED841AF0EE690A41EE78
:10222000C10A9FED821A60EE810A9FED811A00EECD
:10223000810A7C4880ED000A90ED010A724890ED19
:10224000011ADFED791AF0EE490A41EEC10A9FED5D
:10225000771A60EE810A9FED761A00EE810A7148C6
:1022600080ED010A90ED020A674890ED021ADFED59
:102270006E1AF0EE680A41EEC10A9FED6C1A60EE2C
:10228000810A9FED6B1A00EE810A664880ED020A12
:1022900062480078401C614908700846007852285E
:1022A00001DB002008705F4890ED000A564890ED71
:1022B000001ADFED5D1AF0EE690A41EEC10A9FEDEA
:1022C0005B1A11EE200A5B4880ED000A554890ED3C
:1022D000010A4D4890ED011ADFED531AF0EE490A5C
:1022E00041EEC10A9FED511A11EE200A514880EDCE
:1022F000010A4C4890ED020A434890ED021ADFEDC6
:102300004A1AF0EE680A41EEC10A9FED481A11EE32
:10231000200A484880ED020A90ED000A3A48D0EDC4
:10232000000A20EE200A4348D0ED010A364890ED1D
:10233000011A00EE810A3F48D0ED020A324890EDC2
:10234000021A00EE810A3C4880ED020A69EEA90AF1
:1023500049EE090A48EEA80AB0EE600A00F01CFC3B
:10236000364880ED000AF5EEC09AF1EE10FA02DD73
:10237000B0EE690A01E0B1EE690ADFED310AB4EEB0
:10238000E00AF1EE10FA7DD2B5EEC09AF1EE10FA45
:1023900002DDB0EE490A01E0B1EE490ADFED280A9C
:1023A000B4EEE00AF1EE10FA6CD2F5EEC08AF1EE6E
:1023B00010FA02DDB0EE680A01E0B1EE680ADFED66
:1023C000200AB4EEE00AF1EE10FA5BD21B4890ED61
:1023D000000AC9EE800AF0EE609A90ED000AC9EE9C
:1023E000000AB0EE609A90ED000AC8EE800AF0EEA6
:1023F000608A27E0C3F5C840300600208C0000202A
:10240000C82B0020982B0020502B00208800002093
:1024100033336542980000206C00002090000020BB
:1024200000000000BC2B0020000080455C2019400B
:10243000CDCC4C3CB02B0020A42B00207C000020F5
:102440000080894590ED000ADFEDFE0AB4EEE00A57
:10245000F1EE10FA54DD90ED000A5FED070AB4EEDC
:10246000E00AF1EE10FA4BD2F74890ED020A20EEA6
:10247000090AD0ED010A08EEE00AF44880ED030AEB
:10248000F14800E033E090ED000A20EE280AD0ED9C
:10249000020A09EEE00AED4880ED040A1FED2B0A5E
:1024A00028EE000AF7EE000A20EE20AA90ED030ABB
:1024B000D0ED060A70EE600A90ED060A0AEE200AD8
:1024C00080ED060A90ED040AD0ED070A70EE600A6E
:1024D00090ED070A0AEE200A80ED070A90ED060A41
:1024E00080ED000A90ED070A80ED010A08E01FED7B
:1024F000340AD64880ED000A1FED370A80ED010A44
:10250000D24890ED090AD0ED000A1FED3B1A60EEAB
:10251000810AB0EE001A60EE810A00EE880A80EDB2
:10252000090A90ED0A0AD0ED010A1FED431A60EE88
:10253000810AB0EE001A60EE810A00EE880A80ED92
:102540000A0A90ED0B0AD0ED020A1FED4B1A60EE5D
:10255000810AB0EE001A60EE810A00EE880A80ED72
:102560000B0A90ED090ADFEDBA0AB4EEE00AF1EECB
:1025700010FA02D29FEDB60A0FE0B44890ED090AB6
:10258000DFEDB40AB4EEE00AF1EE10FA02DD9FEDE1
:10259000B10A02E0AD4890ED090AAC4880ED090AA5
:1025A00090ED0A0ADFEDAA0AB4EEE00AF1EE10FAA5
:1025B00002D29FEDA70A0FE0A44890ED0A0ADFEDD2
:1025C000A50AB4EEE00AF1EE10FA02DD9FEDA10AD1
:1025D00002E09E4890ED0A0A9C4880ED0A0A90EDC0
:1025E0000B0ADFED9B0AB4EEE00AF1EE10FA02D21C
:1025F0009FED970A0FE0954890ED0B0ADFED950AE5
:10260000B4EEE00AF1EE10FA02DD9FED920A02E06C
:102610008E4890ED0B0A8D4880ED0B0A8A4890EDAC
:10262000020AB5EEC00AF1EE10FA2ADD8A480078F7
:1026300098B18A48D0ED000A894890ED001A70EEF2
:10264000C10AB0EE600A00F0A5FCDFED860A20EEBC
:10265000200A854880ED000A18E08048D0ED000A85
:102660007F4890ED001A70EEC10AB0EE600A00F0EB
:1026700091FCDFED7E0A20EE200A7B4880ED000A07
:1026800004E01FED990A784880ED000A6F4890ED4C
:10269000000AD0ED090A30EE200ADFED750A20EEBF
:1026A000200A694890ED001A6F48D0ED001AF0EE4C
:1026B0004E0A41EE610A9FED6F1A00EE810A6348EF
:1026C00080ED0C0A90ED010AD0ED0A0A30EE200AE6
:1026D000DFED670A20EE200A5B4890ED011A6248A0
:1026E000D0ED001AF0EE6E0A41EE610A9FED611A1C
:1026F00000EE810A554880ED0D0A5348D0ED020ADC
:10270000594890ED001AB0EE4F0A00EEC10ADFED15
:10271000590A20EE200A4D4880ED0E0A564890EDE9
:10272000010AB1EE400A4948D0ED0C0A20EE200A19
:102730005148D0ED020A454890ED0D1A00EEC10A4D
:102740004D48D0ED030A414890ED0E1A00EEC10A43
:102750004948D0ED000A40EE080AC0ED000A90EDAD
:10276000000A3A48D0ED0C0A20EE200A4248D0ED8B
:10277000020A364890ED0E1A00EE810A3E48D0ED6E
:10278000030A324890ED0D1A00EEC10A3A48D0ED26
:10279000010A40EE080AC0ED010A90ED000A2B483C
:1027A000D0ED0D0A20EE200A3348D0ED010A27486B
:1027B00090ED0E1A00EEC10A2F48D0ED030A23480F
:1027C00090ED0C1A00EE810A2B48D0ED020A40EE83
:1027D000080AC0ED020A90ED000A1C48D0ED0E0A6E
:1027E00020EE200A2448D0ED010A184890ED0D1A79
:1027F00000EE810A2048D0ED020A144890ED0C1A30
:1028000000EEC10A1C48D0ED030A40EE080AC0EDF4
:10281000030AD0ED000A60EEA00A90ED011AD0ED97
:10282000011A41EE210A90ED021AD0ED021A41EE92
:10283000210A90ED031AD0ED031A41EE210AB0EE01
:10284000600A1BE000806D45502B00205C2B0020AF
:1028500034FA0EBD34FA0E3DFC040020980000202E
:102860006800002090C2753D940000206766E63E37
:102870009A99993E34FA8E3C6C00002000F08CF955
:102880005C4880ED000A5C4890ED000A5948D0EDA4
:10289000000A80EE201A584880ED001A90ED010AD7
:1028A0005448D0ED000A80EE201A534880ED011AFA
:1028B00090ED020A4F48D0ED000A80EE201A4E48F3
:1028C00080ED021A90ED030A4A48D0ED000A80EE2E
:1028D000201A494880ED031A90ED011A21EE011AE1
:1028E000D0ED021A90ED022A01EE821AF7EE001ADC
:1028F000B0EE002A42EE411AF0EE610A90ED001AA5
:10290000D0ED011A21EE211AD0ED021A90ED032A22
:1029100001EE821AF0EE001A21EE211AB0EE410A01
:1029200000F07FF8DFED350A20EE200A84ED000A82
:10293000314890ED010AD0ED030A20EE200AD0EDD7
:10294000000A90ED021A00EEC10AF0EE000A20EE35
:10295000200A10EE101A084614F0B5FA41EC1D0BCF
:10296000B0EE4D0AF0EE6D0A14F0E6FCB0EE40CA8F
:10297000F0EE60CA9FED220B53EC102B51EC1C0BB8
:1029800014F01EFA41EC1B0B14F0E0FA28601A4810
:1029900090ED001A21EE011AD0ED011A90ED012AF6
:1029A00001EE821AF7EE001AB0EE002A52EE011A7A
:1029B000F0EE610A90ED011AB1EE411AD0ED021A63
:1029C00021EE211AD0ED001A90ED032A01EEC21A71
:1029D000F0EE001A21EE211AB0EE410A00F021F8C3
:1029E000DFED060A20EE200A86ED000ABDEC108B12
:1029F00070BD0000800000206C0000203333654271
:102A00000000006066A64C40F0EE400AF5EEC00AF9
:102A1000F1EE10FA02DBB0EE600A7047B1EE600A28
:102A2000FBE700B5B0EE403AB0EE602AB5EEC03A32
:102A3000F1EE10FA04D0B5EEC02AF1EE10FA02D190
:102A40009FEDFB1A99E0B0EE430AFFF7DDFFF0EED1
:102A5000403AB0EE420AFFF7D7FFF0EE402AF4EE1C
:102A6000E23AF1EE10FA02D283EEA24A01E082EEDF
:102A7000A34A9FEDF00AB4EEC04AF1EE10FA02D27A
:102A8000F0EE441A2DE0DFEDEC0AB6EE000A14EE8B
:102A9000200AF0EE404ABDEEE40A10EE100A00EE05
:102AA000100AB8EEC00A34EEC00AF0EE404AE3491C
:102AB00001EB800191ED000AF0EE401ADF4A411C63
:102AC00002EB810191ED000A114601EB8001D1ED8D
:102AD000000A70EE600AB0EE610A00EEA40AF0EEA1
:102AE000401AF4EEE32AF1EE10FA20DDB5EEC02A2A
:102AF000F1EE10FA0ADBB5EEC03AF1EE10FA02DBA5
:102B0000B0EE611A39E0B1EE611A36E09FEDCC1AF1
:102B1000B5EEC03AF1EE10FA04DB31EE610AB0EE28
:102B2000401A2AE031EEC10AB0EE401A25E0B5EEB7
:102B3000C03AF1EE10FA10DB9FEDC21AB5EEC02AD2
:102B4000F1EE10FA04DB31EE610AB0EE401A14E047
:102B500031EE210AB0EE401A0FE09FEDBB1AB5EE40
:102B6000C02AF1EE10FA04DB31EE210AB0EE401A71
:102B700003E031EE610AB0EE401AB0EE410A00BD4A
:102B800000B5B0EE405AF0EE605AF0EE450AB0EEF5
:102B9000650AFFF746FF00BDB0EE401AB7EE080A1F
:102BA000B0EE402AB6EE000A21EE000AF0EE401A1E
:102BB000F0EE410A10EE900AA449A1EB600000EE8D
:102BC000900A61EEA02AB7EE080A02EEE00A20EEB3
:102BD000200AF0EE400A61EEA02AB7EE080A02EEE3
:102BE000E00A20EE200AF0EE400A21EE200A7047AB
:102BF00010B52DED0A8BB0EE409AF0EE609A9FED85
:102C0000940B53EC102B51EC190B14F06FF918D2F4
:102C10009FED910B53EC102B51EC190B14F0D0F8E5
:102C200041EC1B0B9FED8E0B53EC102B14F021F895
:102C300041EC1A0B53EC192B14F0C2F841EC180BB1
:102C400017E09FED850B53EC102B51EC190B14F092
:102C5000B7F841EC1B0B9FED820B53EC102B14F0DB
:102C6000ACF841EC1A0B53EC192B14F0A9F841EC19
:102C7000180B9FED770B53EC102B51EC180B14F045
:102C800035F920D29FED780B53EC102B51EC180B3B
:102C900013F0EFFF41EC1C0B9FED750B53EC102B69
:102CA00014F08EF841EC1B0B9FED6F0B53EC102BC7
:102CB00013F0DFFF41EC1A0B53EC182B14F080F8E3
:102CC00041EC180B1FE09FED680B53EC102B51ECFF
:102CD000180B14F06FF841EC1C0B9FED670B53ECD5
:102CE000102B14F06DF841EC1B0B9FED5F0B53ECB8
:102CF000102B13F0BEFF41EC1A0B53EC182B14F001
:102D00005FF841EC180BB0EE480AF0EE680ABDEC33
:102D10000A8B10BD10B52DED068BB0EE408AF0EE9B
:102D2000608A01249FED560B53EC102B51EC180BCD
:102D300014F0F4F80AD89FED520B53EC102B51EC21
:102D4000180B14F037F841EC180BA41E204614F0B1
:102D5000A9F841EC190BB0EE480AF0EE680AFFF74B
:102D600047FFB0EE40AAF0EE60AA53EC192B51ECED
:102D70001A0B14F025F841EC100BBDEC068B10BDBE
:102D800010B52DED088BB0EE408AF0EE608A01247C
:102D90009FED3D0B53EC102B51EC180B13F069FF1A
:102DA00041EC180B9FED360B53EC102B51EC180B2C
:102DB00014F0B4F80AD8A41E9FED310B53EC102B7D
:102DC00051EC180B13F0F6FF41EC180B204614F0F1
:102DD00069F841EC1A0BB0EE480AF0EE680AFFF70A
:102DE00099FFB0EE40BAF0EE60BA53EC1A2B51ECFA
:102DF0001B0B13F0E5FF41EC190B14F0A7F800EEE4
:102E0000100ABDEC088B10BDB0EE401AB5EEC01A2A
:102E1000F1EE10FA3CDD31EE600AB5EEC00AF1EEDB
:102E200010FA37D2DFED021AB0EE610A32E000008C
:102E3000000000008180803B000080439C00002057
:102E4000DB0F4940DB0FC93FDB0FC9BFDF59375FDD
:102E50000000000000000000000000602FF0D93FDB
:102E600000000060305FF43F000000000000F03F11
:102E7000000000C0CCCCCCBF000000C0CCCCCC3F0C
:102E8000F1D4C853FB210940F1D4C853FB21F93FC9
:102E9000B0EE410A7047B0EE401AB5EEC01AF1EE3E
:102EA00010FA0BD231EE200AB5EEC00AF1EE10FA9C
:102EB00006DD5FED211AB0EE610A01E0B0EE410AD5
:102EC0007047F0EE401AF4EEE01AF1EE10FA09DD68
:102ED00031EEC10AB4EEE00AF1EE10FA0BD2B0EE18
:102EE000600A08E031EE810AB4EEE00AF1EE10FA71
:102EF00001DDB0EE600A7047F0EE401AB1EE412AF3
:102F000032EE202AB4EEE12AF1EE10FA09D231EEC7
:102F1000202AB4EEE12AF1EE10FA02DDB0EE600AEA
:102F200001E0B0EE610A704710B52DED028BB0EEF6
:102F3000408AF0EE608A9FED730B53EC102B51EC3E
:102F4000180B13F0EBFF0CD29FED700B53EC102B12
:102F500051EC180B13F02EFF41EC100BBDEC028B63
:102F600010BD9FED6C0B53EC102B51EC180B13F0B4
:102F7000BDFF0AD29FED650B53EC102B51EC180BE3
:102F800013F077FE41EC100BE8E7B0EE480AF0EEE4
:102F9000680AE3E7F0EE400A9FED600AF4EEC00A2B
:102FA000F1EE10FA04DD9FED5E0A30EEC00A7047C4
:102FB0009FED5C0AF4EEC00AF1EE10FA04D29FED28
:102FC000580A30EE800AF2E7B0EE600AEFE7F0EE62
:102FD000400AF5EEC00AF1EE10FA02DDB0EE600A2A
:102FE00001E0B1EE600A90ED041AB4EEC10AF1EE10
:102FF00010FA0CDDF5EEC00AF1EE10FA04D291EDF4
:10300000040AB1EE400A704791ED040AFBE7F5EEC1
:10301000C00AF1EE10FA02DDB0EE600A01E0B1EE96
:10302000600A90ED031AB4EEC10AF1EE10FA0CDD5D
:10303000F5EEC00AF1EE10FA04D291ED030AB1EEFA
:10304000400AE0E791ED030ADDE7F5EEC00AF1EE94
:1030500010FA02DDB0EE600A01E0B1EE600A90ED18
:10306000021AB4EEC10AF1EE10FA0CDDF5EEC00A58
:10307000F1EE10FA04D291ED020AB1EE400AC2E775
:1030800091ED020ABFE7F5EEC00AF1EE10FA02DD9B
:10309000B0EE600A01E0B1EE600A90ED011AB4EE04
:1030A000C10AF1EE10FA0CDDF5EEC00AF1EE10FAED
:1030B00004D291ED010AB1EE400AA4E791ED010AB4
:1030C000A1E7F5EEC00AF1EE10FA02DDB0EE600AFB
:1030D00001E0B1EE600A90ED001AB4EEC10AF1EE23
:1030E00010FA0CDDF5EEC00AF1EE10FA04D291ED03
:1030F000000AB1EE400A86E791ED000A83E71FED72
:10310000B40A80E700000000008066400000000074
:103110000080764000000000008066C0000034435C
:103120000000B443000034C370B505460C46214688
:10313000F74802F084FD2146F54807F059FF70BDBD
:1031400070B504460D46AA20F14908704870EF207A
:1031500088700220C870084604714571002600205E
:1031600005E0EB49095C3144CEB2411CC8B20628E7
:10317000F7DBE74886710721FFF7D6FF70BD70B512
:1031800004460D46AA20E24908704870EE20887077
:103190000220C8700846047145710026002005E031
:1031A000DB49095C3144CEB2411CC8B20628F7DBCA
:1031B000D74886710721FFF7B7FF70BD2DE9F043AF
:1031C0002DED028B83B005460E4617469846B0EEAD
:1031D000408A0024AA222146641CCD48425421463C
:1031E000641C425404222146641C4254002221469D
:1031F000641C42542146641C45542146641C4654B8
:1032000001979DF807202146641C42549DF8062032
:103210002046611CCCB2BE490A549DF805202046C8
:10322000611CCCB2BA490A549DF804202046611CA6
:10323000CCB2B7490A54CDF804809DF80720204647
:10324000611CCCB2B2490A549DF806202046611C8C
:10325000CCB2AF490A549DF805202046611CCCB27F
:10326000AB490A549DF804202046611CCCB2A84901
:103270000A549FEDA80A28EE000ABDEEC00A10EE1F
:10328000100A00B202909DF809202046611CCCB2C1
:103290009F490A549DF808202046611CCCB29C49E5
:1032A0000A54201FC8704FF00009002006E098491A
:1032B000095C494401F0FF09411CC8B2A042F6DB99
:1032C0002046611CCCB2924901F8009021469048FA
:1032D000FFF72AFF03B0BDEC028BBDE8F08370B5A9
:1032E0002DED0A8B82B00546B0EE408AF0EE608A82
:1032F000B0EE419AF0EE619AB0EE42AAF0EE62AA08
:10330000B0EE43BAF0EE63BAB0EE44CA0024AA228B
:103310002146641C7E4842542146641C425405F1F7
:103320000F00C2B22146641C794842540022214653
:10333000641C42549FED780A28EE000ABDEEC00AD4
:1033400010EE100A00B201909DF805202146641C81
:103350006F4842549DF804202146641C42549FED5E
:103360006E0A28EE800ABDEEC00A10EE100A00B206
:1033700001909DF805202146641C654842549DF843
:1033800004202046611CCCB261490A549FED620AB8
:1033900029EE000ABDEEC00A10EE100A00B201903C
:1033A0009DF805202046611CCCB259490A549DF86D
:1033B00004202046611CCCB255490A549FED560AA0
:1033C00029EE800ABDEEC00A10EE100A00B201908C
:1033D0009DF805202046611CCCB24D490A549DF849
:1033E00004202046611CCCB249490A549FED4A0A88
:1033F0002AEE000ABDEEC00A10EE100A00B20190DB
:103400009DF805202046611CCCB241490A549DF824
:1034100004202046611CCCB23D490A549FED3E0A6F
:103420002AEE800ABDEEC00A10EE100A00B201902A
:103430009DF805202046611CCCB235490A549DF800
:1034400004202046611CCCB231490A549FED320A57
:103450002BEE000ABDEEC00A10EE100A00B2019079
:103460009DF805202046611CCCB229490A549DF8DC
:1034700004202046611CCCB225490A549FED260A3F
:103480002BEE800ABDEEC00A10EE100A00B20190C9
:103490009DF805202046611CCCB21D490A549DF8B8
:1034A00004202046611CCCB219490A549FED1A0A27
:1034B0002CEE000ABDEEC00A10EE100A00B2019018
:1034C0009DF805202046611CCCB211490A549DF894
:1034D00004202046611CCCB20D490A54201FC8703C
:1034E0000026002005E00A49095C3144CEB2411CA7
:1034F000C8B2A042F7DB2046611CCCB204490E548E
:1035000021460348FFF710FE02B0BDEC0A8B70BDE8
:10351000E82B00200000C84200007A44F8B50546B8
:103520000E460024AA222146641CFE48425421462D
:10353000641C425405222146641C42540022214648
:10354000641C425400959DF801202146641C42549D
:103550009DF800202146641C425400969DF80120ED
:103560002146641C42549DF800202146601CC4B2D0
:10357000EC484254201FEB49C8700027002005E0AA
:10358000E849095C3944CFB2411CC8B2A042F7DB1C
:103590002046611CCCB2E3490F542146E148FFF7B5
:1035A000C3FDF8BD7FB50024AA222146641CDD4876
:1035B00042542146641C425406222146641C425453
:1035C00000222146641C42549DF801202146641CBF
:1035D00042549DF800202146641C42549DF8052069
:1035E0002146641C42549DF804202046611CCCB244
:1035F000CC490A549DF809202046611CCCB2C94927
:103600000A549DF808202046611CCCB2C5490A54D2
:103610009DF80D202046611CCCB2C2490A549DF889
:103620000C202146601CC4B2BE4842549DF82120A3
:103630002046611CCCB2BB490A549DF8202020468C
:10364000611CCCB2B7490A549DF825202046611C64
:10365000CCB2B4490A549DF824202046611CCCB257
:10366000B0490A549DF829202046611CCCB2AD49CE
:103670000A549DF828202046611CCCB2A9490A545E
:103680009DF82D202046611CCCB2A6490A549DF815
:103690002C202046611CCCB2A2490A54201FC870BD
:1036A0000025002005E09F49095C2944CDB2411C5A
:1036B000C8B2A042F7DB2046611CCCB299490D5438
:1036C00021469848FFF730FD7FBD7FB50024AA2230
:1036D0002146641C934842542146641C42540322F0
:1036E0002146641C425400222146641C42549DF829
:1036F00001202146641C42549DF800202146641C90
:1037000042549DF805202146641C42549DF8042033
:103710002046611CCCB283490A549DF809202046FA
:10372000611CCCB27F490A549DF808202046611CD8
:10373000CCB27C490A549DF80D202046611CCCB2C5
:1037400078490A549DF80C202046611CCCB275497A
:103750000A549DF821202046611CCCB271490A54BC
:103760009DF820202146601CC4B26E4842549DF84A
:1037700025202046611CCCB26A490A549DF82420B9
:103780002046611CCCB267490A549DF82920204686
:10379000611CCCB263490A549DF828202046611C64
:1037A000CCB260490A549DF82D202046611CCCB251
:1037B0005C490A549DF82C202046611CCCB2594922
:1037C0000A549DF831202046611CCCB255490A5458
:1037D0009DF830202046611CCCB252490A549DF815
:1037E00035202046611CCCB24E490A549DF8342045
:1037F0002046611CCCB24B490A54201FC8700025DA
:10380000002005E04749095C2944CDB2411CC8B2FB
:10381000A042F7DB2046611CCCB242490D54214640
:103820004048FFF781FC7FBD73B50024AA222146E2
:10383000641C3C4842542146641C425407222146E1
:10384000641C425400222146641C42549DF803200B
:103850002146641C42549DF802202146641C4254B7
:103860009DF801202146641C42549DF8002020460A
:10387000611CCCB22B490A549DF805202046611CDE
:10388000CCB228490A549DF804202046611CCCB2D1
:1038900024490A54201FC8700025002005E0214952
:1038A000095C2944CDB2411CC8B2A042F7DB2046D6
:1038B000611CCCB21B490D5421461A48FFF734FC59
:1038C0007CBD2DE9F84F05460E4617469846DDE9C2
:1038D0000AAB0024AA222146641C12484254214605
:1038E000641C425402222146641C42540022214698
:1038F000641C425400959DF801202146641C4254EA
:103900009DF800202146641C425400969DF8012039
:103910002146641C42549DF800202146601CC4B21C
:10392000004801E0E82B0020425400979DF8012058
:103930002046611CCCB2FE490A549DF80020204666
:10394000611CCCB2FA490A54CDF800809DF80120E0
:103950002046611CCCB2F6490A549DF8002020464E
:10396000611CCCB2F2490A54CDF800A09DF80120A8
:103970002046611CCCB2EE490A549DF80020204636
:10398000611CCCB2EA490A54CDF800B09DF8012080
:103990002146601CC4B2E64842549DF800202146EE
:1039A000601CC4B2E24842540C9800909DF801207B
:1039B0002046611CCCB2DE490A549DF80020204606
:1039C000611CCCB2DA490A540D9800909DF8012090
:1039D0002046611CCCB2D6490A549DF800202046EE
:1039E000611CCCB2D2490A540E9800909DF8012077
:1039F0002046611CCCB2CE490A549DF800202046D6
:103A0000611CCCB2CA490A54002000909DF80120E4
:103A10002046611CCCB2C6490A549DF800202046BD
:103A2000611CCCB2C2490A54201FC8704FF0000973
:103A3000002006E0BE49095C494401F0FF09411C31
:103A4000C8B2A042F6DB2046611CCCB2B84901F8EE
:103A500000902146B648FFF767FBBDE8F88F38B500
:103A60000024AA222146641CB14842542146641C09
:103A70004254F1222146641C425400222146641C17
:103A80004254AC4890ED010ABDEEC00A10EE100A97
:103A900000B200909DF801202146641CA4484254C5
:103AA0009DF800202146641C4254A34890ED000A72
:103AB000BDEEC00A10EE100A00B200909DF8012081
:103AC0002146641C9A4842549DF800202046611CFF
:103AD000CCB297490A54974890ED030ABDEEC00A4C
:103AE00010EE100A00B200909DF801202046611CE3
:103AF000CCB28F490A549DF800202046611CCCB2FC
:103B00008B490A548D4890ED040ABDEEC00A10EEB0
:103B1000100A00B200909DF801202046611CCCB232
:103B200083490A549DF800202046611CCCB280498C
:103B30000A54824890ED100ABDEEC00A10EE100A39
:103B400000B200909DF801202046611CCCB278495B
:103B50000A549DF800202046611CCCB274490A54D6
:103B60007748008800EB8000400000B200909DF88C
:103B700001202046611CCCB26D490A549DF80020FA
:103B80002046611CCCB26A490A546E4890ED020A84
:103B9000DFED6D0A20EE200ABDEEC00A10EE100A1D
:103BA00000B200909DF801202046611CCCB2604913
:103BB0000A549DF800202046611CCCB25C490A548E
:103BC000201FC8700025002005E05949095C2944E0
:103BD000CDB2411CC8B2A042F7DB2046611CCCB27A
:103BE00053490D5421465248FFF79EFA38BD30B56F
:103BF0002DED048B81B0B0EE408AF0EE608AB0EE1D
:103C0000419A0024AA222146641C49484254214674
:103C1000641C42540B222146641C4254002221465B
:103C2000641C42549FED490A28EE000ABDEEC00A0A
:103C300010EE100A00B200909DF801202146641C8D
:103C40003B4842549DF800202146641C42549FED9D
:103C50003F0A28EE800ABDEEC00A10EE100A00B23C
:103C600000909DF801202146641C314842549DF883
:103C700000202046611CCCB22D490A549FED330A26
:103C800029EE000ABDEEC00A10EE100A00B2009044
:103C90009DF801202046611CCCB225490A549DF8AC
:103CA00000202046611CCCB221490A54201FC87054
:103CB0000025002005E01E49095C2944CDB2411CC5
:103CC000C8B2A042F7DB2046611CCCB218490D54A3
:103CD00021461748FFF728FA01B0BDEC048B30BD30
:103CE0002DE9F0412DED048B82B0B0EE408AF0EE6C
:103CF000608AB0EE419A05460E46174600240095AC
:103D0000AA222146641C0A4842542146641C42549B
:103D100001222146641C425400222146641C425464
:103D20009FED0B0A28EE000ABDEEC00A12E000006B
:103D3000E82B00205C360020C005002074360020EF
:103D40007C3C0020502B002000401C46CDCCCC3DBC
:103D50000000C84210EE100A00B201909DF8052044
:103D60002146641CFD4842549DF804202146641CF1
:103D700042541FED090A28EE800ABDEEC00A10EE7B
:103D8000100A00B201909DF805202146641CF348FA
:103D900042549DF804202046611CCCB2EF490A54DD
:103DA0001FED150A29EE000ABDEEC00A10EE100A3A
:103DB00000B201909DF805202046611CCCB2E74975
:103DC0000A549DF804202046611CCCB2E3490A54F1
:103DD0009DF803202046611CCCB2E0490A549DF8AE
:103DE00002202046611CCCB2DC490A549DF8012017
:103DF0002046611CCCB2D9490A549DF800202146C6
:103E0000601CC4B2D54842542046611CCCB2D34990
:103E10000E542046611CCCB2D0490F54201FC870EC
:103E20004FF00008002006E0CC49095C414401F055
:103E3000FF08411CC8B2A042F6DB2046611CCCB290
:103E4000C64901F800802146C448FFF76DF902B069
:103E5000BDEC048BBDE8F0817FB505460024AA22A5
:103E60002146641CBD4842542146641C4254002231
:103E70002146641C42542146641C42542146641C61
:103E800045549DF805202146641C42549DF80420A9
:103E90002146641C42549DF809202046611CCCB286
:103EA000AE490A549DF808202046611CCCB2AB49AB
:103EB0000A549DF80D202046611CCCB2A7490A5433
:103EC0009DF80C202046611CCCB2A4490A549DF8F0
:103ED00021202046611CCCB2A0490A549DF8202024
:103EE0002046611CCCB29D490A54201FC870002690
:103EF000002005E09949095C3144CEB2411CC8B2AA
:103F0000A042F7DB2046611CCCB294490E542146F6
:103F10009248FFF709F97FBD10B586B09048007848
:103F20009049097890FBF1F201FB12018D4800786D
:103F3000401E814202D101208B4948718848007897
:103F40008A49097890FBF1F201FB12018748007859
:103F5000401E814202D10120834988718048007847
:103F60008349097890FBF1F201FB12018048007847
:103F7000801E814202D101207B4948747848007834
:103F80007C49097890FBF1F201FB12017948007835
:103F9000401E814202D101207349087170480078A7
:103FA0007549097890FBF1F201FB12017248007823
:103FB000401E814202D101206B4948736848007855
:103FC0006E49097890FBF1F201FB12016B48007811
:103FD000801E814202D101206349C8736048007885
:103FE0006749097890FBF1F201FB120164480078FF
:103FF000801E814202D101205B4908745848007834
:104000006049097890FBF1F201FB12015D480078EC
:10401000C01E814202D10120534988745048007863
:104020005949097890FBF1F201FB120156480078DA
:10403000C01E814204D14C48C07C401C4A49C8740F
:1040400047480078401CC0B245490870C82801DDC7
:10405000002008704448007838B1434A51781078FD
:10406000FFF78DF80020404908703F48807848B13C
:1040700000203D4988704548017845480078FFF7A1
:104080005FF84AE23848C07860B100203649C8700D
:104090004FF4C87364224FF4967100900420FFF728
:1040A000DBFE3AE230480079E0B100202E49087189
:1040B000384991ED100A5FEDDB0A20EE200ABDEED3
:1040C000C00A10EE100A34490A780021334B93EDF0
:1040D000001A334BD3ED000A324B93ED000AFFF781
:1040E000FFFD1AE22048807C60B100201E498874E0
:1040F0002D4890ED001ADFED2D0A9FED2C0AFFF7F9
:1041000076FD0AE21848407C28B100201649487420
:10411000FFF7A5FC01E214484079F0B100201249F4
:1041200048711F4890ED000ABDEEC00A10EE100A5B
:1041300001B21C4890ED000ABDEEC00A10EE100A54
:1041400002B21B4890ED000ABDEEC00A10EE100A44
:1041500000B2184B93ED000A2EE05CE0E82B002043
:10416000AE040020AF040020D42B0020B0040020B7
:10417000B1040020B2040020B3040020B4040020E5
:10418000B5040020B6040020B7040020A1040020DC
:10419000A004002074360020FC04002068000020E9
:1041A0000C00002008000020C005002000000000D6
:1041B0004805002044050020BDEEC00A10EE103A6C
:1041C0001BB2CDE90130CDE90321F84890ED000A9A
:1041D000BDEEC00A10EE100A00B20090F44890ED57
:1041E000000ABDEEC00A10EE100A03B2F1480278D0
:1041F000F14890ED000ABDEEC00A10EE100A01B2BF
:10420000EE4890ED000ABDEEC00A10EE100A00B2B2
:10421000FFF757FB81E1EA48807950B10020E84977
:104220008871E84A128891B2E74A1068FFF7FCFAF1
:1042300073E1E348407BA8B30020E149487340F2B2
:10424000DC52E248C08900F2DC5080B2DF49898943
:1042500001F2DC5189B2CDE90302DC4805920291FA
:10426000408900F2DC5080B2D849098901F2DC5162
:1042700089B2D64CCDE90010648804F2DC54A3B2B4
:10428000D24C248804F2DC54A2B2D04CE48804F26C
:10429000DC54A1B2CD4CA48804F2DC54A0B2FFF7E8
:1042A00014FA3AE1FFE7C648C07BA8B10020C44930
:1042B000C873009001900290C54C0390E488A3B2AB
:1042C000C34CA488A2B2C24C6488A1B2C04C24885A
:1042D000A0B2FFF767F920E1B948007C40B10020A7
:1042E000B74908744FF4E4717B20FFF717F914E124
:1042F000B348C07958B30020B149C871B548D0ED72
:104300001E4AB0EE644AD0ED1F4AF0EE643AD0ED9A
:104310001D4AB0EE643AD0ED1A4AF0EE642AD0EDB0
:104320001B4AB0EE642AD0ED194AF0EE641AD0EDC3
:10433000164AB0EE641AD0ED174AF0EE640AD0EDDA
:10434000154AB0EE640A0120FEF7C9FFE5E09C487B
:10435000007A58B300209A4908729F48D0ED1E4A4F
:10436000B0EE644AD0ED1F4AF0EE643AD0ED1D4A3B
:10437000B0EE643AD0ED1A4AF0EE642AD0ED1B4A52
:10438000B0EE642AD0ED194AF0EE641AD0ED164A68
:10439000B0EE641AD0ED174AF0EE640AD0ED154A7B
:1043A000B0EE640A0220FEF79AFFB6E08448407A35
:1043B00058B30020824948728848D0ED214AB0EEB7
:1043C000644AD0ED224AF0EE643AD0ED204AB0EED5
:1043D000643AD0ED1D4AF0EE642AD0ED1E4AB0EEEC
:1043E000642AD0ED1C4AF0EE641AD0ED194AB0EE02
:1043F000641AD0ED1A4AF0EE640AD0ED184AB0EE15
:10440000640A0320FEF76BFF87E06D48807A68B38B
:1044100000206B4988727248D0ED024AB0EE644ABF
:10442000D0ED014AF0EE643AD0ED004AB0EE643AC5
:104430006C48D0ED024AF0EE642AD0ED014AB0EEAD
:10444000642AD0ED004AF0EE641A6448D0ED254AA3
:10445000B0EE641AD0ED264AF0EE640AD0ED244A9C
:10446000B0EE640A0420FEF73AFF56E05448C07AE2
:1044700040B300205249C8725B4890ED023AF0EE1A
:10448000432A90ED013AB0EE432A90ED003AF0EE67
:10449000431A564890ED023AB0EE431A90ED013AB5
:1044A000F0EE430A90ED003AB0EE430A1FEDC14A28
:1044B0004F48D0ED003A4F4890ED003A0520FEF706
:1044C0000EFF2AE03E48007BC0B100203C49087343
:1044D0001FEDCA4A5FEDCB3A1FEDCC3A5FEDCD2A16
:1044E0001FEDCE2A5FEDCF1A1FEDD01A5FEDD10A76
:1044F0001FEDD20A0620FEF7F2FE0EE03048C07C27
:1045000002280AD100202E49C8741FEDD80A0023C2
:104510001A4619461846FEF751FE01F0A2FB06B0F6
:1045200010BD03B587B00020069005900AE00599FC
:104530000798415C06980844C0B206900598401C54
:10454000C0B205900898401E05998842EFDCDDE96D
:104550000701084410F8011C0698814201D009B0F7
:1045600000BD07980078AA2803D107984078AF28A3
:1045700000D0F4E707988078012850D10798007997
:10458000012802D11C49087049E0079800790228E7
:1045900003D101201849487041E0079800790328A9
:1045A0002CD1012014490870487038E0E40600203E
:1045B000E0060020220000201C000020180000203F
:1045C000D42B00207C3C0020A03800205C2C002054
:1045D000500000204C290020102A0020180800203C
:1045E0004C3200203032002084320020683200201B
:1045F000A8040020A40400200437002007980079B4
:10460000042803D10120FE49087008E007980079CA
:10461000212803DB07980079262800DD00BF0798D2
:104620008078022817D107980079012806D1F5492A
:10463000C871087248728872C87208730798007946
:10464000A02802D10120EF49C87007980079A1285D
:1046500001D1FCF765FA07988078032846D1EA482B
:104660000078012802D0022001F090FA0798007922
:104670000799497941EA0020E449888007988079C0
:104680000799C97941EA0020E049C8800798007A73
:104690000799497A41EA0020DC4908800798807A26
:1046A0000799C97A41EA0020D84948800798007BD9
:1046B0000799497B41EA0020D44908810798807B0B
:1046C0000799C97B41EA0020D04948810798007CBE
:1046D0000799497C41EA0020CC4988810798807C71
:1046E0000799C97C41EA0020C849C88107988078A9
:1046F00010287CD107980079000200B20799497907
:104700000843019012F0CEFB9FEDC10B53EC102B30
:10471000CDE902019DED020B51EC100B12F050FBA4
:10472000CDE904019DED040B51EC100B12F00EFCD1
:10473000B949486507988079000200B20799C9799C
:104740000843019012F0AEFB9FEDB10B53EC102B20
:10475000CDE902019DED020B51EC100B12F030FB84
:10476000CDE904019DED040B51EC100B12F0EEFBB2
:10477000A949C8650798007A000200B20799497AEA
:104780000843019012F08EFB9FEDA10B53EC102B10
:10479000CDE902019DED020B51EC100B12F010FB64
:1047A000CDE904019DED040B51EC100B12F0CEFB92
:1047B000994988650798807A000200B20799C97AFA
:1047C0000843019012F06EFB9FED910B53EC102B00
:1047D000CDE902019DED020B51EC100B12F0F0FA45
:1047E000CDE904019DED040B51EC100B00E0B9E0A4
:1047F00012F0ACFB884948660798007B000200B2C3
:104800000799497B0843019012F04CFB9FED800B08
:1048100053EC102BCDE902019DED020B51EC100B76
:1048200012F0CEFACDE904019DED040B51EC100B12
:1048300012F08CFB01467848C1660798807B000225
:1048400000B20799C97B0843019012F02BFB9FED42
:10485000700B53EC102BCDE902019DED020B51ECD6
:10486000100B12F0ADFACDE904019DED040B51ECF3
:10487000100B12F06BFB0146674881660798007CBD
:10488000000200B20799497C0843019012F00AFB2C
:104890009FED5F0B53EC102BCDE902019DED020B58
:1048A00051EC100B12F08CFACDE904019DED040BD4
:1048B00051EC100B12F04AFB574948670798807C6F
:1048C000000200B20799C97C0843019012F0EAFA8D
:1048D0009FED4F0B53EC102BCDE902019DED020B28
:1048E00051EC100B12F06CFACDE904019DED040BB4
:1048F00051EC100B12F02AFB01464748C16707989C
:10490000007D000200B20799497D0843019012F032
:10491000C9FA9FED3F0B53EC102BCDE902019DED41
:10492000020B51EC100B12F04BFACDE904019DED96
:10493000040B51EC100B12F009FB0146364881675D
:104940003048807848B901202E49887007988078CF
:1049500032490870324906980870FCF7DBF80120EC
:104960003049088007988078112848D10798007945
:10497000000200B2079949790843019012F092FAB7
:104980009FED230B53EC102BCDE902019DED020BA3
:1049900051EC100B12F014FACDE904019DED040B5B
:1049A00051EC100B12F0D2FA1F4948650798807934
:1049B000000200B20799C9790843019012F072FA17
:1049C0009FED130B53EC102BCDE902019DED020B73
:1049D00051EC100B12F0F4F9CDE904019DED040B3C
:1049E00051EC100B12F0B2FA0F49C8650798007A23
:1049F000000200B20799497A0843019016E003E1EA
:104A00005D060020D42B0020C50400201A2C0020B5
:104A1000FCA9F1D24D62503F4C290020A004002097
:104A2000A1040020AC040020102A002012F03AFA61
:104A30001FED090B53EC102BCDE902019DED020B8C
:104A400051EC100B12F0BCF9CDE904019DED040B03
:104A500051EC100B12F07AFAFE4988650798807ABB
:104A6000000200B20799C97A0843019012F01AFABD
:104A70001FED190B53EC102BCDE902019DED020B3C
:104A800051EC100B12F09CF9CDE904019DED040BE3
:104A900051EC100B12F05AFAEE4948660798007B69
:104AA000000200B20799497B0843019012F0FAF91D
:104AB0001FED290B53EC102BCDE902019DED020BEC
:104AC00051EC100B12F07CF9CDE904019DED040BC3
:104AD00051EC100B12F03AFA0146DE48C166079815
:104AE000807B000200B20799C97B0843019012F055
:104AF000D9F91FED390B53EC102BCDE902019DEDD7
:104B0000020B51EC100B12F05BF9CDE904019DEDA5
:104B1000040B51EC100B12F019FA0146CD488166D6
:104B20000798007C000200B20799497C0843019075
:104B300012F0B8F91FED4A0B53EC102BCDE902012E
:104B40009DED020B51EC100B12F03AF9CDE9040186
:104B50009DED040B51EC100B12F0F8F9BD494867BC
:104B60000798807C000200B20799C97C0843019035
:104B700012F098F91FED5A0B53EC102BCDE90201FE
:104B80009DED020B51EC100B12F01AF9CDE9040166
:104B90009DED040B51EC100B12F0D8F90146AD4815
:104BA000C1670798007D000200B20799497D08435C
:104BB000019012F077F91FED6A0B53EC102BCDE941
:104BC00002019DED020B51EC100B12F0F9F8CDE94A
:104BD00004019DED040B51EC100B12F0B7F90146E6
:104BE0009C4881679C48807848B901209A49887020
:104BF0000798807899490870994906980870FBF7DA
:104C000089FF0120974908800798807812287CD175
:104C100007980079000200B207994979084301908A
:104C200012F040F91FED860B53EC102BCDE9020179
:104C30009DED020B51EC100B12F0C2F8CDE904010E
:104C40009DED040B51EC100B12F080F986490866BB
:104C500007988079000200B20799C979084301904A
:104C600012F020F91FED960B53EC102BCDE9020149
:104C70009DED020B51EC100B12F0A2F8CDE90401EE
:104C80009DED040B51EC100B12F060F9764988662B
:104C90000798007A000200B20799497A0843019008
:104CA00012F000F91FEDA60B53EC102BCDE9020119
:104CB0009DED020B51EC100B12F082F8CDE90401CE
:104CC0009DED040B51EC100B12F040F9664948665B
:104CD0000798807A000200B20799C97A08430190C8
:104CE00012F0E0F81FEDB60B53EC102BCDE90201EA
:104CF0009DED020B51EC100B12F062F8CDE90401AE
:104D00009DED040B51EC100B00E0CAE012F01EF90F
:104D1000554908670798007B000200B20799497B54
:104D20000843019012F0BEF81FEDC70B53EC102B97
:104D3000CDE902019DED020B51EC100B12F040F891
:104D4000CDE904019DED040B51EC100B12F0FEF8BF
:104D5000454988670798807B000200B20799C97BA4
:104D60000843019012F09EF81FEDD70B53EC102B67
:104D7000CDE902019DED020B51EC100B12F020F871
:104D8000CDE904019DED040B51EC100B12F0DEF89F
:104D9000354948670798007C000200B20799497CB2
:104DA0000843019012F07EF81FEDE70B53EC102B37
:104DB000CDE902019DED020B51EC100B12F000F851
:104DC000CDE904019DED040B51EC100B12F0BEF87F
:104DD0002549C1F880000798807C000200B207993D
:104DE000C97C0843019012F05DF81FEDF70B53ECFE
:104DF000102BCDE902019DED020B51EC100B11F0CF
:104E0000DFFFCDE904019DED040B51EC100B12F016
:104E10009DF81549C1F888000798007D000200B28E
:104E20000799497D0843019012F03CF89FED0F0B64
:104E300053EC102BCDE902019DED020B51EC100B50
:104E400011F0BEFFCDE904019DED040B51EC100BF8
:104E500010E00000102A0020D42B0020A004002025
:104E6000A1040020AC04002018080020FCA9F1D205
:104E70004D62503F12F06AF8FD49C1F88400FD48C8
:104E8000807848B90120FB49887007988078FA49F2
:104E90000870FA4906980870FBF73CFE0120F849B3
:104EA00008800798807813287DD107980079000240
:104EB00000B2079949790843019011F0F3FF1FED03
:104EC000150B53EC102BCDE902019DED020B51ECBB
:104ED000100B11F075FFCDE904019DED040B51ECB1
:104EE000100B12F033F8E249C1F89000079880796E
:104EF000000200B20799C9790843019011F0D2FF6E
:104F00001FED260B53EC102BCDE902019DED020B9A
:104F100051EC100B11F054FFCDE904019DED040B91
:104F200051EC100B12F012F8D149C1F89800079813
:104F3000007A000200B20799497A0843019011F003
:104F4000B1FF1FED360B53EC102BCDE902019DEDA7
:104F5000020B51EC100B11F033FFCDE904019DED74
:104F6000040B51EC100B11F0F1FFC149C1F8940092
:104F70000798807A000200B20799C97A0843019025
:104F800011F090FF1FED470B53EC102BCDE9020100
:104F90009DED020B51EC100B11F012FFCDE9040155
:104FA0009DED040B00E0B2E051EC100B11F0CEFFD0
:104FB000B44908600798007B000200B20799497B5A
:104FC0000843019011F06EFF1FED580B53EC102BAE
:104FD000CDE902019DED020B51EC100B11F0F0FE3A
:104FE000CDE904019DED040B51EC100B11F0AEFF67
:104FF000A44948600798807B000200B20799C97BEA
:105000000843019011F04EFF1FED680B53EC102B7D
:10501000CDE902019DED020B51EC100B11F0D0FE19
:10502000CDE904019DED040B51EC100B11F08EFF46
:10503000944988600798807A000200B20799C97A7B
:105040000843019011F02EFF1FED780B53EC102B4D
:10505000CDE902019DED020B51EC100B11F0B0FEF9
:10506000CDE904019DED040B51EC100B11F06EFF26
:10507000854908600798007B000200B20799497BC8
:105080000843019011F00EFF1FED880B53EC102B1D
:10509000CDE902019DED020B51EC100B11F090FED9
:1050A000CDE904019DED040B51EC100B11F04EFF06
:1050B000754948600798807B000200B20799C97B58
:1050C0000843019011F0EEFE1FED980B53EC102BEE
:1050D000CDE902019DED020B51EC100B11F070FEB9
:1050E000CDE904019DED040B51EC100B11F02EFFE6
:1050F000654988605F48807848B901205D498870BB
:10510000079880785C4908705C4906980870079891
:10511000807814287ED107980079000200B20799A0
:1051200049790843019011F0BDFE1FEDB00B53EC1F
:10513000102BCDE902019DED020B51EC100B11F08B
:105140003FFECDE904019DED040B51EC100B11F075
:10515000FDFE4E49086007988079000200B2079969
:10516000C9790843019011F09DFE1FEDC00B53EC6F
:10517000102BCDE902019DED020B51EC100B11F04B
:105180001FFECDE904019DED040B51EC100B11F055
:10519000DDFE3E4948600798007A000200B2079998
:1051A000497A0843019011F07DFE1FEDD00B53ECBE
:1051B000102BCDE902019DED020B51EC100B11F00B
:1051C000FFFDCDE904019DED040B51EC100B11F036
:1051D000BDFE2E49886007980079000200B2079949
:1051E00049790843019011F05DFE1FEDE00B53EC8F
:1051F000102BCDE902019DED020B51EC100B11F0CB
:10520000DFFDCDE904019DED040B51EC100B11F015
:105210009DFE00E0A1E01E49086007988079000229
:1052200000B20799C9790843019011F03BFE1FEDC8
:10523000F10B53EC102BCDE902019DED020B51EC6B
:10524000100B11F0BDFDCDE904019DED040B51ECF7
:10525000100B11F07BFE0E4948600798007A00029F
:1052600000B20799497A0843019011F01BFE11E042
:1052700018080020D42B0020A0040020A104002046
:10528000AC040020303200204C3200206832002074
:10529000843200209FED710B53EC102BCDE90201FD
:1052A0009DED020B51EC100B11F08AFDCDE90401CC
:1052B0009DED040B51EC100B11F048FE694988601C
:1052C0000798007C000200B20799497C08430190CE
:1052D00011F0E8FD9FED610B53EC102BCDE90201BD
:1052E0009DED020B51EC100B11F06AFDCDE90401AC
:1052F0009DED040B51EC100B11F028FE5A4908608B
:105300000798807C000200B20799C97C084301908D
:1053100011F0C8FD9FED510B53EC102BCDE90201AC
:105320009DED020B51EC100B11F04AFDCDE904018B
:105330009DED040B51EC100B11F008FE4B49086079
:105340004B48807848B9012049498870079880788F
:1053500048490870484906980870079880781528C9
:105360000CD14348807848B901204149887007989A
:1053700080784049087040490698087000BFFFF7E0
:10538000EEB810B504463D48007838B9AA2C05D1CE
:1053900001203A4908703A4804705DE037480078C7
:1053A000012807D1AF2C05D10220344908703448B8
:1053B000447051E031480078022807D1F12C05DA19
:1053C00003202E4908702E48847045E02B48007851
:1053D00003280CD1322C0ADA042028490870284806
:1053E000C4702848047000202749087034E023481E
:1053F0000078042819D123480078002815DD2148B9
:105400000078401E1F4908701F4800781E4909781F
:10541000491C1D4A1170001D19490C541948007887
:10542000D0B905201549087016E014480078052801
:105430000FD100201149087013480078001D104951
:105440000C5411480078401DC1B20D48FFF769F8AF
:1054500002E000200949087010BD0000FCA9F1D24B
:105460004D62503F84320020A4040020A804002094
:10547000D42B0020A0040020A1040020BA040020A6
:105480002A2C0020B8040020B90400200246002085
:1054900007E0FC4B1B5632F8133021F81030431C48
:1054A000D8B20828F5DB7047F7480078022804D105
:1054B0009FEDF61AF64880ED021AF34800780228AC
:1054C0000CD1F4480078052808D1F34800680F286B
:1054D00004DA9FEDF21AEE4880ED021AEC4890EDE6
:1054E000021ADFEDEF1AB4EEE11AF1EE10FA55D21E
:1054F0000120EC490870E64890ED031ADFEDE81A48
:10550000B4EEE11AF1EE10FA1AD2E748B0F9000051
:10551000401CC8B3E5480078B0B3E348B0F90000D8
:1055200001EE100AB8EEC11ADFEDE11A01EE801AA1
:10553000BDEEC11A11EE100A00B2DB49088032E05C
:10554000D34890ED031ADFEDDB1AB4EEE11AF1EE69
:1055500010FA1ADDD448B0F90000401CA0B1D348BD
:10556000007888B9D048B0F9000001EE100AB8EE12
:10557000C11ADFEDCF1A01EE801ABDEEC11A11EE8D
:10558000100A00B2C84908800DE0C748B0F9000011
:10559000401C40B90020C449088004E00020C249F2
:1055A0000880C0490870C048B0F90000B0F5967F87
:1055B00012DD4FF0FF30BC490880BC48007840B98C
:1055C0000120BA4908700220BB494870BB490870E5
:1055D00002E00020B5490870AD4890ED021ADFEDF9
:1055E000B01AB4EEE11AF1EE10FA37D290ED031AC8
:1055F000DFEDAB1AB4EEE11AF1EE10FA2ED290ED17
:10560000001ADFEDAC1AB4EEE11AF1EE10FA25DD66
:1056100090ED011ADFEDA71AB4EEE11AF1EE10FADF
:105620001CDDA748B0F90000B0F5FA6F12DAA44803
:10563000B0F9000001EE100AB8EEC11ADFED9C1AB5
:1056400001EE801ABDEEC11A11EE100A00B29C499B
:10565000088006E001209B49087002E0002098497C
:1056600008809248007888B38E48007801282ED1AF
:10567000F5EEC00AF1EE10FA02DDB0EE601A01E0BC
:10568000B1EE601ADFED901AB4EEE11AF1EE10FA05
:105690001DD28E48B0F90000B0F5FA6F12DA8B48CF
:1056A000B0F9000001EE100AB8EEC11ADFED801A61
:1056B00001EE801ABDEEC11A11EE100A00B2834944
:1056C000088007E000207949087003E0FFE7002028
:1056D0007E49088070473FB5B0EE402A05467C48B9
:1056E0000078012804D17B492846FFF7CFFE07E068
:1056F00077480078022803D176497748FFF7C6FE3D
:1057000000242CE2734830F8140040F6C41188429B
:1057100005DC704830F81400B0F5FA7F07DA012094
:105720006E49085500206E4921F8140012E06C48BB
:1057300030F81400401C6A4921F81400084630F87B
:105740001400C82806DD4FF4FA6021F81400002088
:10575000624908555E480078012803D05C4800780B
:1057600002287CD15D48005D002879D1594830F885
:10577000140000B22DF814005A4830F914005A49A8
:1057800031F9141088426CDD5848005D002869D159
:105790003DF91400544931F91410401A00EE100A72
:1057A000B8EEC01A4F4830F914004F4931F91410BF
:1057B000401A00EE100AB8EEC00AC1EE000A9FEDD2
:1057C0003C1A9FED4B0A10EE810ABDEEC00A10EEA6
:1057D000100A00B210F5FA7F01DA46484EE03DF9B2
:1057E0001400414931F91410401A00EE100AB8EEC5
:1057F000C01A3C4830F914003B4931F91410401AE2
:1058000000EE100AB8EEC00AC1EE000A9FED281A99
:105810009FED370A10EE810ABDEEC00A10EE100AA5
:1058200000B2B0F5FA7F02DD4FF4FA7026E03DF9E0
:1058300014002D4931F91410401A00EE100AB8EE88
:10584000C01A284830F91400274931F91410401AB9
:1058500000EE100AB8EEC00AC1EE000A03E0CBE089
:10586000C6E0C2E04AE09FED121A9FED210A10EE59
:10587000810ABDEEC00A10EE100A00B21E4921F8DE
:105880001400B5E0BC04002080050020000096C391
:105890008C2C0020210000207C3C00200000E1C373
:1058A0000000C8C3FD040020FE040020FC0400200A
:1058B00000007A440000C843043700209000002014
:1058C000000500205D060020000096430205002030
:1058D000C5040020FC2C00201A2C0020C604002047
:1058E000EC2C0020D0040020E0040020F004002074
:1058F0000000FA430CFEFFFF5C2C00203DF9140071
:10590000A54931F91410401A00EE100AB8EEC01A79
:10591000A24830F91400A04931F91410401A00EEE1
:10592000100AB8EEC00AC1EE000A1FED1F1A1FEDE3
:10593000100A10EE810ABDEEC00A10EE100A00B285
:1059400010F5FA7F01DA964849E03DF914009249D2
:1059500031F91410401A00EE100AB8EEC01A8F4840
:1059600030F914008C4931F91410401A00EE100A75
:10597000B8EEC00AC1EE000A1FED331A1FED240A6B
:1059800010EE810ABDEEC00A10EE100A00B2B0F5AA
:10599000FA7F02DD4FF4FA7021E03DF914007E49F0
:1059A00031F91410401A00EE100AB8EEC01A7B4804
:1059B00030F91400784931F91410401A00EE100A39
:1059C000B8EEC00AC1EE000A1FED471A1FED380AF3
:1059D00010EE810ABDEEC00A10EE100A00B240427D
:1059E00000B2704921F8140002E000206E490870EE
:1059F00000206E49087002E001206C4908709FED9C
:105A00006C0A22EE000A6B4880ED000A3DF9140092
:105A100000EE100AB8EEC00A674800EB8400D0ED33
:105A2000000A30EE600AB5EEC00AF1EE10FA0DDDA4
:105A30003DF9140000EE100AB8EEC00A5E4800EB13
:105A40008400D0ED000A30EE600A0EE03DF914004B
:105A500000EE100AB8EEC00A574800EB8400D0ED03
:105A6000000A30EE600AB1EE400ADFED540AB4EEEF
:105A7000E00AF1EE10FA1DD24A4830F9140000EEA7
:105A8000100AB8EEC00A4C4800EB8400D0ED000AC2
:105A900070EE600A484800EB840090ED000A45482B
:105AA00090ED001A01EE200A434800EB840080EDDF
:105AB000000A20E03B4830F9140000EE100AB8EE6E
:105AC000C00A3D4800EB8400D0ED000A70EE600A89
:105AD000394800EB840090ED000A364890ED001A3A
